:103E0000112484B714BE81FFE6D085E08093810041
:103E100082E08093C00088E18093C10086E08093B7
:103E2000C20085E18093C4008EE0CFD0259A86E061
:103E30002CE33BEF91E0309385002093840096BB08
:103E4000B09BFECF1D9AA8958150A9F7DD24D3948D
:103E5000A5E0EA2EF1E1FF2EABD0813421F481E020
:103E6000C5D083E020C0823411F484E103C08534DE
:103E700019F485E0BBD091C0853581F499D0082F25
:103E800010E096D090E0982F8827802B912B880FF8
:103E9000991F90930102809300027EC0863529F419
:103EA00084E0A4D080E07CD078C0843609F04EC095
:103EB00087D0E0910002F091010288E3E030F8073A
:103EC00018F483E087BFE895C0E0D1E071D0899312
:103ED000809102028150809302028823B9F7E09119
:103EE0000002F091010288E3E030F80718F083E067
:103EF00087BFE89575D007B600FCFDCF4091000262
:103F000050910102A0E0B1E02C9130E011968C912B
:103F1000119790E0982F8827822B932B1296FA0105
:103F20000C01D7BEE89511244E5F5F4FF1E0A03839
:103F3000BF0751F7E0910002F0910102E7BEE8955A
:103F400007B600FCFDCFF7BEE89527C08437B9F46B
:103F500037D046D0E0910002F09101023196F09303
:103F60000102E09300023197E4918E2F19D08091E5
:103F70000202815080930202882361F70EC08537C8
:103F800039F42ED08EE10CD084E90AD086E08BCFB4
:103F9000813511F488E019D023D080E101D05CCFC5
:103FA000982F8091C00085FFFCCF9093C6000895A4
:103FB000A8958091C00087FFFCCF8091C60008952E
:103FC000F7DFF6DF80930202F3CFE0E6F0E098E15E
:103FD00090838083089580E0F8DFEE27FF2709941F
:103FE000E7DF803209F0F7DF84E1DACF1F93182F83
:0C3FF000DFDF1150E9F7F4DF1F910895A6
:023FFE000104BC
:0400000300003E00BB
:00000001FF
