:101D0000112484B714BE81FF18D185E08EBD8EE00A
:101D100000D1D49AD29A86E023EC3FEF91E03DBD0A
:101D20002CBD9BB9589BFECFCC9AA8958150B9F792
:101D3000BB24B39425E0A22E9FE7D92E8EECC82EAB
:101D4000D4D0813421F481E0F0D083E0B5C0823476
:101D500011F484E103C0853419F485E0E6D0B3C002
:101D6000853569F4C2D0E82EFF24BFD0082F10E0DB
:101D7000102F00270E291F29000F111FA3C0863521
:101D800021F484E0D2D080E097C0843609F060C0AE
:101D9000ACD0ABD0F82EA9D0C0E0D1E0A6D08993CA
:101DA000FC16E1F783E0F80187BFE895B6D007B6E7
:101DB00000FCFDCF0115110511F0A8012AC080918A
:101DC00000012091010130E0322F222790E0282BE2
:101DD000392B309385012093840140910801809133
:101DE000090190E0982F882750E0842B952B909341
:101DF0008701809386012450304020930801232FCF
:101E0000332720930901D0920001C092010140E0E4
:101E100050E0A0E0B1E02C9130E011968C91119748
:101E200090E0982F8827822B932B1296FA010C01B1
:101E3000B7BEE89511244E5F5F4FF1E0A034BF07B5
:101E400051F7F801A7BEE89507B600FCFDCF3BC0EF
:101E5000843751F54AD049D0F82E47D05ED0E801FA
:101E6000EF2C209719F48091840114C0C130D10562
:101E700019F4809185010EC0C830D10519F4809104
:101E8000860108C0C930D10519F48091870102C0CC
:101E9000FE01849121961AD0EA9419F70F5F1F4F23
:101EA000FA940F0D111D0FC0853741F436D08EE125
:101EB0000DD083E90BD08CE009D005C0813511F439
:101EC00088E027D02AD080E101D03ACF2AE030E064
:101ED0008095089410F4DA9802C0DA9A000015D0C0
:101EE00014D086952A95B1F70895A89529E030E099
:101EF000CB99FECF0AD009D008D08894CB9908940A
:101F00002A9511F08795F7CF08959EE09A95F1F7FD
:101F1000089598E191BD81BD0895E7DF803219F001
:101F200088E0F7DFFFCF84E1D1CF1F93182FDDDFEB
:101F30001150E9F7F2DF1F91089580E0EADFE4E055
:041F4000FF270994DA
:021EFE000204DC
:0400000300001D00DC
:00000001FF
