:1078000011241FBECFEFDAE0DEBFCDBFD0C04101F3
:1078100042144505560455026403740300001E9586
:1078200087020110030000C18081C106C0FF0A0069
:107830000CA10185037508150026FF00954009017C
:107840008102954009029102C0040309041A033021
:1078500000300030003000300030003000300031A7
:1078600000370030003100120100020200004041E8
:1078700023200000010000010112010002000000AD
:1078800040412320000001000001010902640003BF
:1078900001008032080B000202020100090400000E
:1078A0000102020000052400100105240101010469
:1078B0002402020524060001070581031000400987
:1078C000040100020A000000070502024000000750
:1078D00005830240000009040200010300000009C2
:1078E0002101010001221E00070584034000400021
:1078F00020918A0130918B012F5F3F4F30938B0194
:1079000020938A01832F9927982F87FD9095990FAF
:10791000921710F447980895479A089581E080934C
:10792000E0001092E200EE27FF27099408950F93DC
:107930001F93CF93DF93982FEB01042F10E088E77C
:107940006030780730F411E083E0FB01809357004A
:10795000E895892F68E071E0402FD8D0112311F10C
:1079600007B600FCFDCF402F4695FE01A8E0B1E030
:1079700020E031E009C08D919D910C0130935700BA
:10798000E895112432962F5F2417A8F385E0FE01B5
:1079900080935700E89507B600FCFDCF81E1809306
:1079A0005700E895DF91CF911F910F9108953F9A6D
:1079B000209A6E9A90E8909361001092610081E89D
:1079C00085BF95BF8AD084E18093880180E1809350
:1079D0008901E0E0F0E0859194918F5F9F4F19F06D
:1079E00081E080938D01EE24FF24DD24D394D5D152
:1079F000082F8EE098E7FC0124913196029644917D
:107A0000201711F02223B9F710928F0110928E01E6
:107A100082E068E071E07AD0013479F46091080185
:107A20006058633028F0683111F064E001C063E011
:107A3000C62FD0E0CF5DD7480EC0063571F48091D7
:107A40000801803311F011E022C080910A01C82F93
:107A5000D0E0C25ED74811E022C0053721F413E020
:107A6000CEE1D8E71CC0053539F4E0900801F0906C
:107A70000901EE0CFF1C0AC0043631F482E0B701A4
:107A80004091090154DF02C0043721F010E0C5E243
:107A9000D8E705C010910901E701E10EF11C7DD185
:107AA0008097B1F483E068E871E041E050E044D0B1
:107AB000112329F0412F50E083E8BE013DD083E43B
:107AC00069E871E041E050E037D0013509F08FCF2F
:107AD000D0928D01EE24FF248ACF10928F01109254
:107AE0008E0110928C0110928D0181E08093D7005D
:107AF00080EA8093D80082E189BD09B400FEFDCF01
:107B000080E98093D8001092E0000895FB018093F3
:107B1000E9009BE60EC08091E80085FFFCCF8091D4
:107B2000F10081938091E80085FD02C09093E80008
:107B30004150442381F70895982FFB01282F20728C
:107B400087708093E9003AE314C08091E80085FFD4
:107B5000FCCF97FF02C0849101C080813196211132
:107B600080E08093F1008091E80085FD02C03093B1
:107B7000E800415050408FEF4F3F580731F796FFD4
:107B800003C08AE38093E8000895809191018132D7
:107B900079F420E030E003C080818093F100F901A6
:107BA000E050FF4F2F5F3F4F28303105A9F71EC02F
:107BB0008032B1F48091E80082FFFCCF20E030E019
:107BC00003C08091F1008083F901E050FF4F2F5FE7
:107BD0003F4F28303105A9F78BEF8093E80006C0AE
:107BE000823221F4809192018093070181E008950F
:107BF00020919301223231F1213081F4809196015C
:107C000090919701089711F4209398018091980121
:107C1000882309F03AC0E9E7F8E739C0223021F4B7
:107C200084E6EBE8F8E711C0233069F58091920112
:107C3000882319F4E9E4F8E72AC0813021F5EDE45E
:107C4000F8E725C081E0EBE2F8E790919601282F54
:107C5000981708F4292F90E03EEF8091E800857096
:107C6000E1F38091E80082FD0EC09F5F84918093D4
:107C7000F100892F8F7311F43093E8003196921739
:107C800060F381E0089580E00895E7E6F8E78491E5
:107C9000DCCF1092E9008091E80083FF5FC0E0E94B
:107CA000F1E003C08091F100819381E0E839F807A9
:107CB000C9F782EF8093E8008091900187FF05C0AB
:107CC0008091E80080FFFCCF03C08EEF8093E80036
:107CD00080919101853051F48091E80080FFFCCFC4
:107CE0008091920180688093E30031C08930E1F493
:107CF0008091920180938C01E7E2F8E791E031E016
:107D000026E39093E9003093EB0084918093EC009C
:107D10002093ED009F5F3196953099F78EE7809321
:107D2000EA001092EA0013C0883029F480918C0197
:107D30008093F1000CC0882319F41092F10007C061
:107D4000863011F455DF01C020DF882321F08EEF4B
:107D50008093E800089581E28093EB00089580917C
:107D6000E1001092E100282F83FF0CC01092E9007F
:107D700081E08093EB001092EC0082E38093ED00B1
:107D800010928C0122FF08C080918D01882321F47C
:107D900010928F0110928E0108951F9312E079DFE7
:107DA000DEDF1093E9008091E80085FF0DC090911F
:107DB000F1008091E80085FD03C08BE68093E80028
:107DC000892F90E01F91089584E6000000000000D4
:107DD00000008150D1F780918E0190918F01019721
:107DE00090938F0180938E0180918E0190918F01ED
:0A7DF000892B09F493DD7CDDD2CF6E
:087DFA0000E1000000000000A0
:040000030000780081
:00000001FF
