:20000000A2C00000BBC00000B9C00000B7C00000B5C00000B3C00000B1C00000AFC000004B
:20002000ADC00000ABC00000A9C000005BC400001FC40000A3C00000A1C000009FC000005A
:200040009DC000009BC0000099C0000097C0000095C0000093C0000091C0000002C100007C
:200060008DC000008BC0000089C0000087C0000085C0000083C0000081C000007FC0000050
:200080007DC000007BC0000079C0000077C0000075C0000073C000001201100102000008E2
:2000A0004123100000000102DC0109023E00020100C0320904000001020201000524000171
:2000C00010042402060524060001070582030800FF09040100020A000000070504024000AC
:2000E0000007058302400000040309043203410072006400750069006E006F0020002800CC
:200100007700770077002E00610072006400750069006E006F002E0063006300290000003D
:200120002403410072006400750069006E006F0020004D00650067006100200032003500A5
:2001400036003000000011241FBECFEFD2E0DEBFCDBF11E0A0E0B1E0EAEEFFE002C005907E
:200160000D92A631B107D9F712E0A6E1B1E001C01D92A033B107E1F7E0D035C741CF9C014B
:20018000DC01AE57BF4FED91FC91119741911196FC93EE9380589F4FE817F90711F42D93A9
:2001A0003C939FB7F894F901EC57FF4F8081815080839FBF842F0895FC018489813019F0BC
:2001C000823019F404C090E303C090E001C090E28389823009F498608589873031F0883072
:2001E00031F0863029F4926003C0946001C096601092C9001092C8001092CA002785308905
:2002000041895289203081EE380780E0480780E0580711F082E001C080E08093C80088E9FD
:200220008093C9009093CA00203081EE380780E0480780E0580719F420E130E00DC0CA01D3
:20024000B901969587957795679560587B47814E9F4FA7D6215030403093CD002093CC00F1
:2002600008951F920F920FB60F9211242F938F939F93EF93FF939091CE00809127028430ED
:20028000F1F4E0919901F0919A019083E0919901F0919A01CF01019690939A018093990146
:2002A0008959914021F489E191E0928381839FB7F89480919D018F5F80939D019FBFFF9164
:2002C000EF919F918F912F910F900FBE0F901F901895FC01858580FF02C05F9808955F9A52
:2002E000089580E091E0F3C580E091E0A6C584B7877F84BF28E10FB6F89420936000109209
:2003000060000FBE87E690E09093CD008093CC0086E08093CA001092C8002093C900539AEE
:200320005A9A8AB180638AB98BB180638BB995D284E085BD5F9A579A08950F931F93CF93BB
:20034000DF93D5DF2FB7F8948EE991E090931F0280931E0290932102809320022FBF2FB757
:20036000F89489E191E090939A018093990190939C0180939B012FBF7894CEE9D1E003E0F7
:2003800080E091E0CCD49C0197FD23C08FB7F894909122028FBF9038E1F0E0911E02F091C8
:2003A0001F022083E0911E02F0911F02CF01019690931F0280931E028E51924011F4D2835D
:2003C000C1839FB7F894809122028F5F809322029FBF8FB7F89410919D018FBFA89902C0DD
:2003E000113678F1A89A80919D01882361F05D980093160108C089E191E0C1DE682F80E088
:2004000091E0F6D411501123B1F780911601882351F0809116018150809316018091160105
:20042000882309F45D9A80911701882351F08091170181508093170180911701882309F412
:200440005C9A8FB7F894909122028FBF992369F08EE991E094DE982F8091C80085FFFCCFE3
:200460009093CE005C980093170180E091E0B0D442D486CFDA01923049F0933061F0913081
:20048000F9F4E8E9F0E022E130E01EC0EAEAF0E02EE330E019C0813049F0813018F08230EA
:2004A00079F408C0E8EEF0E0849107C0ECEEF0E0849103C0E0E2F1E08491282F30E004C030
:2004C000E0E0F0E020E030E0ED93FC93C901089528E030E040E003C04F5F220F331F28179B
:2004E0003907D0F3842F8295807F08958093E9008091EB0081608093EB001092ED0060933A
:20050000EC004093ED008091EE00881F8827881F08951092F40090E09093E9001092F000F2
:200520001092E8001092ED008091EB008E7F8093EB009F5F953081F70895809128028823DD
:200540009CF404C0809127028823B9F08091E80082FFF8CF8091E8008B778093E8000895E5
:2005600080912702882349F08091E80080FFF8CF8091E8008E778093E800089594E68091FD
:20058000EC0080FF05C08091E80080FF05C025C08091E80082FD21C080912702882311F4C6
:2005A00082E0089580912702853011F483E008958091EB0085FF02C081E008958091E10016
:2005C00082FFDDCF8091E1008B7F8093E100992311F484E008959150D2CF80E008959C0120
:2005E00040912E0250912F024617570718F4F90120E03AC06115710511F0AB01F8CF8091BC
:20060000E8008E778093E80040E050E0F0CF8091E80083FF02C081E008958091E80082FD30
:2006200031C080912702882399F180912702853089F18091E80080FF17C09091F20006C0C9
:2006400081918093F100415050409F5F4115510511F09830A8F320E0983009F421E080917E
:20066000E8008E778093E8004115510581F6222371F608C080912702882351F0809127029B
:20068000853041F08091E80082FFF4CF80E0089582E0089583E008959C0140912E025091BC
:2006A0002F024617570710F490E03DC06115710511F0AB01F9CF8091E8008E778093E80083
:2006C00040E050E0F1CF8091E80083FF02C081E008958091E80082FD34C08091270288237E
:2006E000B1F1809127028530A1F18091E80080FF1AC08091F20009C0F9012F5F3F4FE4912E
:20070000E093F100415050408F5F4115510511F0883090F390E0883009F491E08091E800EF
:200720008E778093E8004115510569F6992359F608C080912702882351F0809127028530C6
:2007400041F08091E80082FFF4CF80E0089582E0089583E008959C016115710529F4809178
:20076000E8008B778093E800F90122C08091E80083FF02C081E0089580912702882351F156
:2007800080912702853041F18091E80082FFEECF06C08091F10081936150704021F08091A2
:2007A000F2008823B1F78091E8008B778093E80061157105D9F608C080912702882351F055
:2007C00080912702853041F08091E80080FFF4CF80E0089582E0089583E0089543D045D09A
:2007E0001092270210922502109224021092230284E089BD89B5826089BD09B400FEFDCF3F
:200800008091D800982F9F779093D80080688093D800809163008E7F809363008091D80064
:200820008F7D8093D8008091E0008E7F8093E0008091E1008E7F8093E1008091E200816009
:200840008093E2008091E100877F8093E1008091E20088608093E2000895C0DF81E0809337
:20086000260208951092E20008951092E10008951F920F920FB60F9211241F932F933F933F
:200880004F935F936F937F938F939F93AF93BF93EF93FF93E9EEF0E0108117701082E0EF54
:2008A000F0E08081877F80837894C6D0F894A9EEB0E01C92E0EFF0E08081886080831C9321
:2008C000FF91EF91BF91AF919F918F917F916F915F914F913F912F911F910F900FBE0F90FD
:2008E0001F9018951F920F920FB60F9211242F933F934F935F936F937F938F939F93AF939D
:20090000BF93EF93FF938091E10080FF1CC08091E20080FF18C08091E1008E7F8093E100E7
:200920008091E2008E7F8093E2008091E20080618093E2008091D80080628093D80019BC6E
:2009400010922702D7D18091E10084FF2AC08091E20084FF26C084E089BD89B5826089BD59
:2009600009B400FEFDCF8091D8008F7D8093D8008091E1008F7E8093E1008091E2008F7E1D
:200980008093E2008091E20081608093E20080912502882311F481E001C084E080932702EF
:2009A000A9D18091E10083FF28C08091E20083FF24C08091E100877F8093E10082E08093A7
:2009C0002702109225028091E1008E7F8093E1008091E2008E7F8093E2008091E200806169
:2009E0008093E20096DD80E060E042E07FDD8091F00088608093F0007DD18091E10082FFC4
:200A00000AC08091E20082FF06C08091E1008B7F8093E1006FD1FF91EF91BF91AF919F91D2
:200A20008F917F916F915F914F913F912F910F900FBE0F901F9018951F93DF93CF93CDB7B5
:200A4000DEB7AC970FB6F894DEBF0FBECDBFE8E2F2E08091F100819322E0E033F207C9F7F7
:200A60008091280230912902353009F487C0363040F43130C9F1313070F0333009F021C1F2
:200A800033C0383009F4F2C0393009F401C1363009F017C194C0803821F0823809F011C14B
:200AA00008C09091230280912402882399F0926011C080912C0287708093E9008091EB00CC
:200AC00090E025E0969587952A95E1F7982F91701092E9008091E800877F8093E800909353
:200AE000F1001092F100CDC0882319F0823009F0E8C090E08F719070009721F0029709F034
:200B0000E1C00CC080912A02813009F0DBC010922402333069F5809324022AC080912A02FD
:200B2000882331F520912C02277009F4CBC02093E9008091EB0080FFC5C0333021F48091C1
:200B4000EB00806213C08091EB0080618093EB0081E090E002C0880F991F2A95E2F780938D
:200B6000EA001092EA008091EB0088608093EB001092E9008091E800877F86C0882309F0A9
:200B8000A0C010912A028091E800877F8093E800D4DC05C080912702882309F493C0809173
:200BA000E80080FFF7CF812F8F7711F492E001C093E09093270280688093E30083C0805862
:200BC000823008F07EC080912A0290912B0223E08C3D920799F55FB7F894DE0115964EE055
:200BE00020E030E061E2E42FF0E060935700849120FF03C082958F704F5F982F9F70892F2C
:200C0000805D8A3308F0895F8C9311961C9211972F5F3F4F12962431310529F75FBF8AE245
:200C20008B8383E08C838091E800877F8093E800CE0103966AE270E0D2DC12C060912C0297
:200C4000AE014F5F5F4F16DCBC01009709F43AC08091E800877F8093E80089819A811CDD34
:200C60008091E8008B778093E8002CC0803849F58091E800877F8093E80080912502809357
:200C8000F1008091E8008E778093E80056DC1AC08823B9F490912A029230A0F48091E8006A
:200CA000877F8093E8009093250247DC80912502882311F483E001C084E08093270214DB2B
:200CC00001C00FDB8091E80083FF0AC08091EB0080628093EB008091E800877F8093E8004E
:200CE000AC960FB6F894DEBF0FBECDBFCF91DF911F91089508951F9380912702882361F0C9
:200D00001091E9001092E9008091E80083FF01C093DE17701093E9001F9108950895FC0117
:200D200080912702843021F587859089A189B2890097A105B105E1F085818093E90080914E
:200D4000E80082FF15C08091F200882319F42FEF3FEF04C08091F100282F30E08091F2001E
:200D6000882341F48091E8008B778093E80002C02FEF3FEFC9010895FC018091270284303D
:200D800011F587859089A189B2890097A105B105D1F081818093E9008091F2008823A9F0CA
:200DA0009091E8008091E8008E778093E80095FD0CC0E4DB982F882349F48091E8008E7767
:200DC0008093E80003C092E001C090E0892F0895FC0180912702843051F487859089A189DE
:200DE000B2890097A105B10511F0CF01C5CF08951F93FC01162F809127028430D9F4878508
:200E00009089A189B2890097A105B10599F081818093E9008091E80085FD08C08091E8009E
:200E20008E778093E800AADB882329F41093F10080E001C082E01F9108950F931F93CF934B
:200E4000DF93EC010D96FC0189E0DF011D928A95E9F72A813B8109818C81882311F410E0FE
:200E600001C014E0C90134DB182B1260802F61E8412F3CDB882329F12E813F810D818885E1
:200E8000882311F410E001C014E0C90121DB182B1260802F60E8412F29DB882391F02A853C
:200EA0003B8509858C85882311F410E001C014E0C9010EDB182B1260802F61EC412F16DBB9
:200EC00001C080E0DF91CF911F910F910895CF93DF93EC018091E80083FF60C0888190E05F
:200EE00020912C0230912D022817390709F056C080912902813261F0823220F4803209F0E2
:200F00004DC019C0823269F1833209F047C038C080912802813A09F041C08091E800877F41
:200F20008093E800CE010F9667E070E058DB8091E8008B7713C080912802813279F580913D
:200F4000E800877F8093E800CE010F9667E070E002DCCE0131D98091E8008E778093E800ED
:200F60001DC0809128028132C9F48091E800877F8093E80080912A028D87CE01AAD90DC07F
:200F800080912802813251F48091E800877F8093E800CE0160912A02C1DECFDADF91CF9120
:200FA0000895A1E21A2EAA1BBB1BFD010DC0AA1FBB1FEE1FFF1FA217B307E407F50720F02B
:200FC000A21BB30BE40BF50B661F771F881F991F1A9469F760957095809590959B01AC01A2
:200FE000BD01CF010895F894FFCF00034000000440000002080000000000000000000000DB
:201000004BC0000064C0000062C0000060C000005EC000005CC000005AC0000058C00000F3
:2010200056C0000054C0000052C00000CBC400004EC000004CC000004AC0000048C00000B9
:2010400046C0000044C0000042C0000040C000003EC000003CC000003AC0000038C0000098
:2010600036C0000034C0000032C0000030C000002EC000002CC000002AC0000028C00000F8
:2010800026C0000024C0000022C0000020C000001EC000001CC0000011241FBECFEFD2E088
:2010A000DEBFCDBF11E0A0E0B1E0E4EBFCE102C005900D92A836B107D9F711E0A8E6B1E0ED
:2010C00001C01D92A738B107E1F74FD3F1C598CF982F15C08091F200882371F48091E8004A
:2010E0008B7F8093E80003C08EB3882351F08091E80082FFF9CF02C08091F1009150992358
:2011000049F708952091760130917501809174019091730180936D0190936E01C901809388
:201120006F0190937001089580917101843009F45AC0853030F4813059F0833009F0C3C0BE
:201140001FC0853009F4A0C0863009F0BCC0AFC080917201823008F0B6C0D4DF8091720129
:20116000882361F480916D0190916E0123E0FC0120935700E89507B600FCFDCF85E008C027
:2011800080917201882311F0823029F4BBDF89E0809301010895813009F095C020E030E08C
:2011A00040E050E0F90184918F3F81F0CA01AA27BB2780936C0130936E0120936D018AE0D6
:2011C0008093010185E08093690108952F5F3F4F4F4F5F4F2030F0E13F07F0E04F07F0E0B6
:2011E0005F0701F7089580917201833051F581E0809368018091770190917801892B71F062
:2012000080917301813009F05EC0809176019091750190936B0180936A0108958091730133
:20122000882361F42CE088E190E00FB6F894A895809360000FBE20936000089510920001A8
:201240000895882309F03FC0809173018F3F09F03AC0E0E0F0E093E085E090935700E895A9
:2012600007B600FCFDCF80935700E89507B600FCFDCFE058FF4F20E1E030F20771F781E123
:2012800080935700E8950895E091730180917201882321F4F0E0EB5FFE4F05C0813099F437
:2012A000F0E0EE52FF4F808180937C01089580917201833041F480917301882321F48091E0
:2012C000740180936C0108952F923F924F925F926F927F929F92AF92BF92CF92DF92EF92F0
:2012E000FF920F931F93CF93DF938091850190918601909378018093770180917901882399
:2013000051F08091790181508093790180917901882309F45D9A80917A01882351F08091F0
:201320007A01815080937A0180917A01882309F45C9A80918001833009F4B2C1843030F41C
:20134000813071F0823009F0E3C111C1853009F4C5C1853008F4BAC1863009F0D9C1CDC11F
:201360005C9883E080937A018091E800877F8093E80080916801882329F0D6DE5D9A5C9AAF
:201380001092680120917701309178012115310529F42AC08EB3882309F4BAC18091E8000F
:2013A00082FFF8CF8091F10080937101215030403093780120937701E2E7F1E00CC080919F
:2013C000F10081932150304081E0E737F80719F43183208308C08091F200882381F7309394
:2013E000780120937701A0DE80910101853009F0BAC08091770190917801892B21F482E042
:2014000080930101B0C08AE163DE80916D018F715FDEC0916F01D091700120916D0130916C
:201420006E0121968E01021B130B219780917201882309F093C0180136942794C901A091F0
:201440006C01B0E09C01AD0162E0E62EF12C012D112DE20EF31E041F151F59016A0190E0D8
:2014600099249394B5E0A3E048C08091F200882371F48091E8008B7F8093E80004C08EB352
:20148000882309F445C18091E80082FFF8CF0894210831088091F100682F8091F100782F1D
:2014A000F5010B0190925700E89511249F5F903419F021143104A1F4F901B0935700E89524
:2014C00007B600FCFDCF2114310451F0F701A0935700E89507B600FCFDCFA801970190E0A7
:2014E00042E0442E512C612C712CE40CF51C061D171DA40CB51CC61CD71C2114310409F0A0
:20150000B4CFD0936E01C0936D0181E180935700E89527C08091F200882371F48091E80079
:201520008B7F8093E80004C08EB3882309F4F0C08091E80082FFF8CF6091F10080916D01A7
:2015400090916E01A7D380916D0190916E01019690936E0180936D010150104001151105FB
:20156000C9F680E1B5DD8091E8008B7FC3C08091E800877F8093E8005D9883E08093790154
:2015800004C08EB3882309F4C3C08091E80080FFF8CF80910101893091F08A3069F4809167
:2015A0007201813049F480916D0190916E018093F1009093F1009BC080917C0196C0609173
:2015C0006F017091700120916D0130916E016F5F7F4F7B01E21AF30A6150704080917201E4
:2015E000882389F5870116950795C901A0916C01B0E09C01AD011FC08091F200803271F4B7
:201600008091E8008E7F8093E80004C08EB3882309F47EC08091E80080FFF8CFF90185918F
:2016200094918093F1009093F100015010402E5F3F4F4F4F5F4F01151105F1F670936E01E0
:2016400060936D0129C0823039F523C08091F200803271F48091E8008E7F8093E80004C09E
:201660008EB3882309F454C08091E80080FFF8CF00916D0110916E01C80104D38093F1007B
:201680000F5F1F4F10936E0100936D010894E108F108E114F104D1F682E08093010127C0CE
:2016A0008091E800877F8093E800809169018093F1001092F1001092F1001092F1008091E7
:2016C00001018093F1001092F10011C08091E800877F8093E8001092690119C08091E800C8
:2016E000877F8093E800809101018093F1008091E8008E7F8093E8000AC08091E800877F08
:201700008093E8005D9A5C9A82E08093010187D0DF91CF911F910F91FF90EF90DF90CF9017
:20172000BF90AF909F907F906F905F904F903F902F9008952BD181E085BF15BE089584B799
:20174000877F84BF88E10FB6F89480936000109260000FBE81E085BF82E085BF8AB18063DB
:201760008AB98BB180638BB90CC1E9DF789401C080D2809100018823D9F78091680188235D
:20178000B9F7D8DFE0916A01F0916B010995FA01923071F0933089F0913029F488E091E06A
:2017A00022E130E019C080E090E020E030E014C08AE191E02BE130E00FC0882339F48091D9
:2017C0003501282F30E085E391E006C080913901282F30E089E391E091838083C9010895C0
:2017E0008091EB0081608093EB001092ED006093EC004093ED008091EE00881F8827881FE4
:2018000008951092F4001092F0001092E8001092ED00EBEEF0E080818E7F80830895809182
:201820007F0188238CF403C08EB38823B1F08091E80082FFF9CF8091E8008B7F8093E8006D
:2018400008958EB3882349F08091E80080FFF9CF8091E8008E7F8093E80008959C0140917A
:201860008501509186014617570718F4F90120E038C06115710511F0AB01F8CF8091E80068
:201880008E7F8093E80040E050E0F0CF8091E80083FF02C081E008958091E80082FD2DC091
:2018A0008EB3882381F18EB3853079F18091E80080FF17C09091F20006C081918093F1002C
:2018C000415050409F5F4115510511F09032A8F320E0903209F421E08091E8008E7F809306
:2018E000E8004115510591F6222381F606C08EB3882349F08EB3853041F08091E80082FF85
:20190000F6CF80E0089582E0089583E0089554D056D01EBA10927D0184E089BD89B58260FA
:2019200089BD09B400FEFDCF8091D800982F9F779093D80080688093D800809163008E7FC5
:20194000809363008091D8008F7D8093D8008091E0008E7F8093E0008091E1008E7F80932E
:20196000E1008091E20081608093E2008091E100877F8093E1008091E20088608093E20001
:201980000895C5DF81E080937E010895C0DFE0EEF0E0808181608083E8EDF0E080818F77A8
:2019A00080830AD00CD019BCE3E6F0E080818160808310927E0108951092E200089510929A
:2019C000E10008951F920F920FB60F9211242F933F934F935F936F937F938F939F93AF938A
:2019E000BF93EF93FF938091E10080FF1BC08091E20080FF17C08091E1008E7F8093E100F9
:201A00008091E2008E7F8093E2008091E20080618093E2008091D80080628093D80019BC7D
:201A20001EBA26D18091E10084FF29C08091E20084FF25C084E089BD89B5826089BD09B451
:201A400000FEFDCF8091D8008F7D8093D8008091E1008F7E8093E1008091E2008F7E8093D6
:201A6000E2008091E20081608093E20080917D01882311F481E001C084E08EBBF9D08091D3
:201A8000E10083FF22C08091E20083FF1EC08091E100877F8093E10082E08EBB10927D01F7
:201AA0008091E1008E7F8093E1008091E2008E7F8093E2008091E20080618093E200A1DEF6
:201AC00080E060E042E28CDED3D08091E10082FF0AC08091E20082FF06C08091E1008B7FC2
:201AE0008093E100C5D0FF91EF91BF91AF919F918F917F916F915F914F913F912F910F905E
:201B00000FBE0F901F9018951F93DF93CF9300D0CDB7DEB7EFE7F1E08091F100819381E070
:201B2000E738F807C9F790917F0180918001853011F1863040F48130B9F0813070F08330D5
:201B400009F081C011C0883009F453C0893009F462C0863009F077C02DC0903809F474C00E
:201B6000923809F070C070C0992309F46DC0923009F069C069C0992309F065C01091810152
:201B80008091E800877F8093E80049DE04C08EB3882309F459C08091E80080FFF8CF812F6F
:201BA0008F7711F492E001C093E09EBB80688093E3004AC09058923008F045C080918101F9
:201BC0009091820160918301AE014F5F5F4FDFDDBC010097C9F18091E800877F8093E8001D
:201BE00089819A813BDE8091E8008B7F8093E8002BC0903841F58091E800877F8093E800C6
:201C000080917D018093F1008091E8008E7F8093E80005DE19C09923B1F4909181019230AE
:201C200098F48091E800877F8093E80090937D01F6DD80917D01882311F483E001C084E0E3
:201C40008EBB16D001C040DB8091E80083FF0AC08091EB0080628093EB008091E800877F59
:201C60008093E8000F900F90CF91DF911F91089508958EB3882329F08091E80083FF01C030
:201C800043CF0895F999FECF92BD81BDF89A992780B50895262FF999FECF1FBA92BD81BD6B
:201CA00020BD0FB6F894FA9AF99A0FBE01960895F894FFCF01021E938220DCFB1201100123
:201CC00000000020EB03F72F00000001000109021B0001010080320904000000FE010200E6
:201CE0000921030000000C0001040309042C03410072006400750069006E006F0020004D28
:1C1D000000650067006100200032003500360030002000440046005500000000AE
:00000001FF
