:200000000C9475010C949D010C949D010C949D010C949D010C949D010C949D010C949D0118
:200020000C949D010C949D010C940C050C9493050C949D010C949D010C949D010C949D0163
:200040000C949D010C949D010C949D010C949D010C949D010C949D010C949D010C94BC0191
:200060000C949D010C949D010C949D010C949D010C949D010C949D010C949D010C949D0190
:200080000C949D010C949D010C949D010C949D010C949D010C949D010C949D010C949D0170
:2000A0000C949D010C949D010C949D0100000000240027002A002D0030000000000025008F
:2000C00028002B002E003100000000002300260029002C002F00040404040403040502027D
:2000E0000202040302020202060606060606040402020204040802011040804010204080A8
:200100004080080204018040201002011080102040400000000200080E0000030401000BB2
:2001200000000000000000000000000000000000070605040100080A0B0C0D090403090455
:200140002203410072006400750069006E006F002000590075006E002000200020002000CC
:2001600020001803410072006400750069006E006F0020004C004C00430012010002000062
:2001800000404123418000010102000112010002020000404123418000010102000100C1B3
:2001A0008081C1080B000202020100090400000102020000052400100105240101010424C3
:2001C000020605240600010705810310004009040100020A00000007050202400000070591
:2001E000830240000005010902A1010901A100850105091901290315002501950375018138
:200200000295017505810305010930093109381581257F750895038106C0C005010906A182
:20022000018502050719E029E7150025017501950881029501750881039506750815002567
:20024000650507190029658100C009040200010300000009210101000122650007058403EB
:2002600040000100000000000000002A2B28000000000000000000000000000000000000C0
:200280000000002C9EB4A0A1A2A434A6A7A5AE362D3738271E1F20212223242526B333B6BE
:2002A0002EB7B89F8485868788898A8B8C8D8E8F909192939495969798999A9B9C9D2F31F5
:2002C00030A3AD350405060708090A0B0C0D0E0F101112131415161718191A1B1C1DAFB15C
:2002E000B0B50000480426072B0811241FBECFEFDAE0DEBFCDBF11E0A0E0B1E0EEECF2E18B
:2003000002C005900D92AC32B107D9F711E0ACE2B1E001C01D92AD39B107E1F712E0CAEEE1
:20032000D2E004C02297FE010E946109C43ED107C9F70E9482030C9465090C940000809103
:20034000000161E00E944F0368EE73E080E090E00E945A028091000160E00E944F0368EE54
:2003600073E080E090E00E945A0208958091000161E00E94C20208951F920F920FB60F92B1
:2003800011242F933F938F939F93AF93BF938091300190913101A0913201B091330130917D
:2003A00034010196A11DB11D232F2D5F2D3720F02D570196A11DB11D2093340180933001C0
:2003C00090933101A0933201B093330180912C0190912D01A0912E01B0912F010196A11D38
:2003E000B11D80932C0190932D01A0932E01B0932F01BF91AF919F918F913F912F910F90BA
:200400000FBE0F901F901895789484B5826084BD84B5816084BD85B5826085BD85B58160D8
:2004200085BDEEE6F0E0808181608083E1E8F0E01082808182608083808181608083E0E833
:20044000F0E0808181608083E1E9F0E0808182608083808181608083E0E9F0E08081816007
:200460008083E1ECF0E0808184608083808182608083808181608083E3ECF0E080818160A8
:200480008083E0ECF0E0808182608083E2ECF0E0808181608083EAE7F0E0808184608083CB
:2004A0008081826080838081816080838081806880830895EF92FF920F931F93CF93DF93AE
:2004C0007B018C013FB7F89480912C0190912D01A0912E01B0912F0126B5A89B05C02F3FE2
:2004E00019F00196A11DB11D3FBFBA2FA92F982F8827820F911DA11DB11D52E0880F991F4F
:20050000AA1FBB1F5A95D1F7EC0130C00E9434093FB7F89480912C0190912D01A0912E0156
:20052000B0912F0126B5A89B05C02F3F19F00196A11DB11D3FBFBA2FA92F982F8827820F07
:20054000911DA11DB11D32E0880F991FAA1FBB1F3A95D1F78C1B9D0B885E9340B8F2089478
:20056000E108F10801091109C851DC4FE114F1040105110559F6DF91CF911F910F91FF902D
:20058000EF900895CF93DF93482F50E0CA018C509F4FFC0134914A525F4FFA018491882368
:2005A00069F190E0880F991FFC01E455FF4FA591B491FC01E654FF4FC591D491662351F415
:2005C0002FB7F8948C91932F909589238C93888189230BC0623061F42FB7F8948C91932F22
:2005E000909589238C938881832B88832FBF06C09FB7F8948C91832B8C939FBFDF91CF919B
:200600000895883071F1893068F4823031F1833020F4813009F042C01DC0833089F084300A
:20062000E9F512C08B3059F18C3028F48930E9F08A30A1F51EC08C3031F18E3079F529C07A
:20064000809180008F7703C0809180008F7D80938000089584B58F7702C084B58F7D84BDEC
:200660000895809190008F7707C0809190008F7D03C080919000877F809390000895809107
:20068000C0008F7703C08091C0008F7D8093C00008958091C200877F8093C2000895FF92A8
:2006A0000F931F93F62E482F50E0CA018E5E9E4FFC012491CA018C509F4FFC0114914A52F2
:2006C0005F4FFA0104910023C9F0222319F0822F0E940103E02FF0E0EE0FFF1FE654FF4FD9
:2006E000A591B4919FB7F894FF2021F48C911095812302C08C91812B8C939FBF1F910F91AB
:20070000FF900895CF93DF930E9404028DE391E00E9449040E94B601C0E0D0E00E949F0176
:200720002097E1F30E940000F9CF282F809137018823C1F057FF1AC015C0289890933601A9
:200740008091F1008193E217F307B9F74115510539F08091F200882319F48BE68093E800E4
:20076000AFBF02C04FEF5FEFCA010895AFB7F89427702093E9008091F200282F30E024178B
:2007800035070CF4A901FB019B01240F311D94E6DACFDF93CF930F92CDB7DEB7BE016F5F1C
:2007A0007F4F41E050E00E949503019719F02FEF3FEF03C08981282F30E0C9010F90CF91F6
:2007C000DF910895FF920F931F93F82E142F052F40913A0150913B01212F302FC901DC010B
:2007E000FB016EEF29C0F7FE02C0949101C09081209138013091390124173507ACF48091FC
:20080000E8008570E1F38091E80082FF03C02FEF3FEF17C09093F100C90101968F73907050
:20082000892B11F46093E8002F5F3F4F3093390120933801119731961097A9F6812F902FFB
:200840009C01C9011F910F91FF9008959C018091E80082FFFCCFF901260F311D03C0809182
:20086000F1008193E217F307D1F7289884E6809336018BEF8093E800CB0108958093E9006A
:200880008091F200882319F08AE38093E800089508951092370181E08093D70080EA80935D
:2008A000D80082E189BD09B400FEFDCF61E070E080E090E00E945A0280E98093D8008CE011
:2008C0008093E2001092E000559A209A08955F926F927F928F929F92AF92BF92CF92DF92A2
:2008E000EF92FF920F931F93CF93DF93E82E842E752E80913701882371F18B01242F352FBA
:20090000C901EC017AEFF72E67E0962E9E2050E4552E8E2D90E040E2A42EB12CA822B92271
:200920003AE3632E20E4C22ED12CC822D92258C09FB7F8949092E9008091E80085FD02C0F1
:2009400020E004C08091F200252D281B9FBF222361F4FA9419F42FEF3FEF4DC061E070E0BE
:2009600080E090E00E945A023BC0822F90E0C817D9070CF42C2FC21BD1094FB7F894909208
:20098000E900A114B10421F406C01092F10021502223D9F719C0E7FC03C0F801922F10C007
:2009A000C801322F06C0FC010196E491E093F10031503323C1F706C081918093F10091508E
:2009C0009923D1F7020F111D8091E80085FF05C0209729F4C114D10411F06092E8004FBFAB
:2009E000209709F0A5CF5D9884E680933501282D372DC9019C01C901DF91CF911F910F9121
:200A0000FF90EF90DF90CF90BF90AF909F908F907F906F905F9008951F920F920FB60F92CC
:200A200011242F933F934F935F936F937F938F939F93AF93BF93EF93FF938091E100109275
:200A4000E100982F83FF0FC01092E90081E08093EB001092EC0082E38093ED0010923701E6
:200A600088E08093F00092FF34C083E08093E9008091F200882319F08AE38093E8008FB7C2
:200A8000F89492E09093E9009091F2008FBF992321F082E891E00E9469078091350188233F
:200AA00051F08091350181508093350180913501882309F45D9A80913601882351F0809169
:200AC000360181508093360180913601882309F4289AFF91EF91BF91AF919F918F917F9112
:200AE0006F915F914F913F912F910F900FBE0F901F9018950F931F93DF93CF930F92CDB7E2
:200B0000DEB719828E010F5F1F4FC8010E948F07C8010E942809898190E00F90CF91DF91B4
:200B20001F910F9108951F920F920FB60F921124EF92FF921F932F933F934F935F936F93AD
:200B40007F938F939F93AF93BF93EF93FF93DF93CF93CDB7DEB76197DEBFCDBF1092E900EE
:200B60008091E80083FF0FC1FE0131969E01275F3F4F03C08091F1008193E217F307D1F71D
:200B8000289884E68093360182EF8093E800998197FF05C08091E80080FFFCCF03C08EEF7D
:200BA0008093E800292F30E0C90180769070892B09F0C2C08A81882329F41092F1001092DB
:200BC000F100D6C0813009F4D3C0833009F4D0C0853049F48091E80080FFFCCF8B818068E4
:200BE0008093E300C5C0863009F07CC01C81EF80F8841230C1F51092E90010923901109206
:200C0000380110923B0110923A010E947A0599E0FE013996DF01292F1D922A95E9F79987D2
:200C20001A8791E09E8790E8988B9AEF998B2091380130913901275F3F4F3C872B878D87B3
:200C40001092E9001092390110923801F0923B01E0923A0180E0BF0149E050E00E94E203E7
:200C60000E947A0585C01092E9001092390110923801F0923B01E0923A01123241F482E284
:200C800090E00E942009892B09F476C071C0113079F488E0E816F10419F481E080933C013A
:200CA00080913C01882309F06BC0EAE7F1E013C0133009F061C08B81882319F4ECE3F1E0E1
:200CC0000AC0823019F4E0E4F1E005C0813009F053C0E2E6F1E0449180E8BF0150E00E940C
:200CE000E20346C0873009F447C0883021F481E08093F1003DC08930D9F523703070232B17
:200D0000D9F5EFE9F1E091E031E026E39093E9003093EB0084918093EC002093ED009F5F65
:200D20003196953099F78EE78093EA001092EA008B81809337011CC08F8198851092E900AE
:200D4000109239011092380190933B0180933A018D81882329F4CE0101960E949B0706C0E9
:200D6000823051F4CE0101960E94F107882321F08EEF8093E80007C081E28093EB0003C05D
:200D8000ECE8F1E0A8CF6196DEBFCDBFCF91DF91FF91EF91BF91AF919F918F917F916F9147
:200DA0005F914F913F912F911F91FF90EF900F900FBE0F901F90189520917E0130917F013D
:200DC0008091800190918101281B390B2F733070C901089520917E0130917F0180918001AB
:200DE000909181012817390719F42FEF3FEF09C0E0918001F0918101E25CFE4F8081282FD7
:200E000030E0C901089520917E0130917F0180918001909181012817390719F42FEF3FEFDD
:200E200013C0E0918001F0918101E25CFE4F2081809180019091810101968F7390709093CD
:200E400081018093800130E0C9010895109285011092840188EE93E0A0E0B0E08093860123
:200E600090938701A0938801B093890180E191E0909383018093820108950F931F93DF93CC
:200E8000CF930F92CDB7DEB78C01698380910901882369F083E0BE016F5F7F4F41E050E08F
:200EA0000E9467041816190614F49C0107C081E090E0F8019383828320E030E0C9010F900E
:200EC000CF91DF911F910F91089583E00E943E040895CF93DF9312C082E00E94C9032FEFDD
:200EE0008F3F9207C9F0E0917E01F0917F01E25CFE4F8083D0937F01C0937E01C0917E01CE
:200F0000D0917F012196CF73D0708091800190918101C817D90701F7DF91CF910895FC0161
:200F200080818E5F808380E863EA71E042E450E00E94E2030895FC0181819081913A59F418
:200F4000813209F04CC080E062E071E047E050E00E94E20342C0913209F041C0803239F46A
:200F600082E091E067E070E00E94260436C0823209F035C08281809309018091020190914E
:200F80000301A0910401B0910501805B9440A040B04019F58091090180FD12C087E797E7ED
:200FA00090930108809300082BE088E190E00FB6F894A895809360000FBE209360000DC058
:200FC00088E10FB6F89480936000109260000FBEA895109201081092000881E0089580E025
:200FE0000895FC0191818081813A31F4913089F080E0933089F40DC0813269F49B3021F4CD
:20100000828180930A0105C09A3029F4828180930B0181E0089580E00895EF92FF920F9332
:201020001F938C01E62EDC01ED91FC910480F581E02D0995F82ED801ED91FC910680F781C8
:20104000E02DC8016E2D09958F2D90E01F910F91FF90EF900895109290011092940110924E
:20106000930182E291E090939201809391010895EF92FF920F931F93DF93CF930F92CDB7B0
:20108000DEB789838B017A0184E0BE016F5F7F4F41E050E00E94670484E4B801A7010E9420
:2010A00067040F90CF91DF911F910F91FF90EF90089582E048E050E00E9438080895FC0125
:2010C00016821782108611861286138614823496BF010E9459080895DC01683810F0685884
:2010E00029C0E62FF0E067FF13C0E058F04081E090E002C0880F991FEA95E2F78095149688
:201100002C911497282314962C93149760E012C0ED59FD4F6491662319F420E030E01DC0EC
:2011200067FF08C014968C9114978D7F14968C9314976F77FD0190E0662321F086818617FD
:2011400009F416829F5F31969630B1F7CD011496BD010E94590821E030E0C9010895CF93B4
:20116000DF93DC01683810F0685825C0E62FF0E067FF12C0E058F04081E090E002C0880F2C
:20118000991FEA95E2F714962C911497282B14962C93149760E00FC0ED59FD4F64916623A7
:2011A000D9F167FF08C014968C911497826014968C9314976F7716968C9116978617A9F1DC
:2011C00017968C911797861781F118968C911897861759F119968C911997861731F11A963C
:2011E0008C911A97861709F11B968C911B978617E1F0ED01E0E0F0E09E2F8E81882321F482
:20120000EA0FFB1F668306C09F5F31962196E630F10591F7963049F481E090E013969C9350
:201220008E93129720E030E007C0CD011496BD010E94590821E030E0C901DF91CF9108958C
:2012400080E865EE71E045E650E00E94E2030895FC0180818F5F808380E86AE472E049E1E2
:2012600050E00E94E20308950895CF92DF92EF92FF920F931F93CF93DF937C016B018A01FD
:20128000C0E0D0E00FC0D6016D916D01D701ED91FC910190F081E02DC7010995C80FD91FC5
:2012A000015010400115110571F7CE01DF91CF911F910F91FF90EF90DF90CF900895EE0F94
:2012C000FF1F0590F491E02D0994F894FFCF0D0000E10000000000000101000000003D079E
:2012E0003509DC060307EA0665076907000000000D083509AF086C085F08FFFFFFFFFFFF19
:20130000FFFFFFFFFFFFFFFFFFFFFFFFFFFFFFFFFFFFFFFFFFFFFFFFFFFFFFFFFFFFFFFFED
:20132000FFFFFFFFFFFFFFFFFFFFFFFFFFFFFFFFFFFFFFFFFFFFFFFFFFFFFFFFFFFFFFFFCD
:20134000FFFFFFFFFFFFFFFFFFFFFFFFFFFFFFFFFFFFFFFFFFFFFFFFFFFFFFFFFFFFFFFFAD
:20136000FFFFFFFFFFFFFFFFFFFFFFFFFFFFFFFFFFFFFFFFFFFFFFFFFFFFFFFFFFFFFFFF8D
:2070000055C000006EC000006CC000006AC0000068C0000066C0000064C0000062C0000043
:2070200060C000005EC00000FCC400005AC0000058C0000056C0000054C0000052C00000E4
:2070400050C000005DC000004CC000004AC0000048C0000046C0000044C0000042C00000D9
:2070600040C000003EC000003CC000003AC0000038C0000036C0000034C0000032C0000048
:2070800030C000002EC000002CC000002AC0000028C0000026C0000024C0000022C00000A8
:2070A00020C000001EC000001CC0000011241FBECFEFDAE0DEBFCDBF11E0A0E0B1E0E6E4B7
:2070C000FFE702C005900D92A63AB107D9F711E0A6EAB1E001C01D92AF3BB107E1F74FD34E
:2070E00030C78ECFF89410926F001092810081E085BF15BE47985D9A289A0C94000008952F
:207100001F920F920FB60F9211242F938F939F93EF93FF9310928500109284008091A60153
:207120009091A701009741F001979093A7018093A601892B09F45D9A8091A8019091A90174
:20714000009741F001979093A9018093A801892B09F4289A8091AC019091AD01019690938C
:20716000AD018093AC01E0E0F0E0859194918F5F9F4F49F08091AA019091AB01019690937E
:20718000AB018093AA01FF91EF919F918F912F910F900FBE0F901F90189584E08093E9009E
:2071A0000DC08091E8008B778093E80003C08EB3882351F08091E80082FFF9CF8091E800E1
:2071C00085FFEFCF8091F1000895982F83E08093E9008091E80085FD0DC08091E8008E7762
:2071E0008093E80003C08EB3882369F08091E80080FFF9CF9093F1005D9884E690E0909346
:20720000A7018093A60108954F925F926F927F928F929F92AF92BF92CF92DF92EF92FF92C3
:207220000F931F93CF93DF9384E08093E9008091E80082FF57C2289884E690E09093A901CC
:207240008093A801AADF182F853481F48CE49DE19093AB018093AA0107B600FCFDCFF999E2
:20726000FECF81E180935700E89503C0843519F494DF8DE00DC28C34E1F38035D1F38437F8
:2072800021F484E4A2DF80E003C2813611F489E5FFC18134B1F481DF182F7FDF90E0880F7B
:2072A000991FAA2797FDA095BA2F312F330F20E0442737FD4095542F822B932BA42BB52BE0
:2072C000B8C1803711F483E5E3C1833549F4C0E0D1E089917ADF21E0C730D207D1F7D9C181
:2072E000863521F481E371DF80E3D2C1833731F487E86BDF85E969DF8EE1CAC18536B9F464
:20730000E0E0F0E093E085E090935700E89507B600FCFDCF80935700E89507B600FCFDCF1D
:20732000E058FF4FA0E7E030FA0771F7A2CF823739F4E1E0F0E089E0809357008491A8C18E
:20734000863439F4E0E0F0E089E08093570084919FC18E3439F4E3E0F0E089E08093570019
:20736000849196C1813539F4E2E0F0E089E08093570084918DC1823631F489E526DF80E046
:2073800024DF80E885C1823419F0873609F0E5C01092AB011092AA0100DF082FFEDEF82E6F
:2073A000FCDE682E8554823008F071C1902F80E0CF2DD0E0C82BD92B10926F00173609F08F
:2073C0004BC081E180935700E895DD24CC24C3943FC0E090AF01F090B0010091B1011091DD
:2073E000B201B6E46B16D9F4ED2DF0E0EE29FF29E4918E2FEADEDD2081F082E090E0A0E00F
:20740000B0E0E80EF91E0A1F1B1FE092AF01F092B0010093B1011093B201DC2418C0D801CB
:20742000C701B695A7959795879575D5CEDE82E090E0A0E0B0E0E80EF91E0A1F1B1FE092FB
:20744000AF01F092B0010093B1011093B2012197209709F0BECF7DC08090AF019090B001EB
:20746000A090B101B090B20196E4691609F05DC083E0F40180935700E89507B600FCFDCF64
:2074800054C0F6E46F1661F5772031F1E090AF01F090B0010091B1011091B2017EDED82E20
:2074A000CC24852D90E08C299D29F7010C0140925700E895112482E090E0A0E0B0E0E80E87
:2074C000F91E0A1F1B1FE092AF01F092B0010093B1011093B20102C060DE582E742423C041
:2074E000E090AF01F090B0010091B1011091B20116950795F794E79450DE682FC70113D5E2
:207500008091AF019091B001A091B101B091B2010296A11DB11D8093AF019093B001A09313
:20752000B101B093B201219704C05524772444244394209709F0A5CF96E4691641F485E01D
:20754000F40180935700E89507B600FCFDCF8DE03CDE82E080936F009CC0833471F4009156
:20756000AF011091B00119DE90E021E0F8010C0120935700E89511247CCE833619F5E0905E
:20758000AF01F090B0010091B1011091B20105DEF701E16090E021E00C0120935700E89552
:2075A000112482E090E0A0E0B0E0E80EF91E0A1F1B1FE092AF01F092B0010093B101109307
:2075C000B20157CE8D3661F4E091AF01F091B00185E080935700E89507B600FCFDCF49CE80
:2075E000823551F4E091AF01F091B00105911491812FEBDD802F4CC0843421F5E090AF01E0
:20760000F090B0010091B1011091B20116950795F794E794C2DD682FC70185D48091AF013D
:207620009091B001A091B101B091B2010296A11DB11D8093AF019093B001A093B101B093BE
:20764000B20117CE843609F5E090AF01F090B0010091B1011091B201D801C701B695A795CA
:207660009795879558D4B1DD82E090E0A0E0B0E0E80EF91E0A1F1B1FE092AF01F092B00161
:207680000093B1011093B20104C08B3111F08FE39CDD83E08093E9009091E8008091E80082
:2076A0008E778093E80095FF04C010C08EB38823C9F08091E80080FFF9CF8091E8008E77BF
:2076C0008093E80003C08EB3882361F08091E80080FFF9CF84E08093E9008091E8008B7714
:2076E0008093E800DF91CF911F910F91FF90EF90DF90CF90BF90AF909F908F907F906F90A9
:207700005F904F9008959091B701892F8F77813249F58091B8018032A1F0813219F5913ADD
:2077200009F58091E800877F8093E8008CE091E067E070E027D28091E8008B778093E800EE
:207740000895913279F48091E800877F8093E8008CE091E067E070E079D28091E8008E77A5
:207760008093E800089582E061EC42E0D1D083E061E842E1CDD084E060E842E1C9C01F9389
:20778000209100081092000844B714BE88E10FB6F89480936000109260000FBE80E8E0E095
:2077A000F0E00FB6F89480936100E09361000FBE31E035BF92E095BF3F9A209A559A809333
:2077C00061001092610047985D9A289A109289008AEF8093880090936F0083E080938100E5
:2077E000859194918F5F9F4F11F03093AE01942F41FF19C0809109012817A9F08093000815
:20780000789480911301882339F08091AC019091AD018F5E9240C8F310920008F89481E0C5
:20782000809313010CC090FF04C08091AE01882351F493FF09C080910901281729F0809173
:20784000AE01882309F04EDCD4D078941092AB011092AA011EEF20C0D7DC4BD38091AA01E6
:207860009091AB0181549F4110F0109213018091B3019091B40101969093B4018093B301FF
:20788000292F97FF03C0512F591B252F220F281710F4479801C0479A809113018823E1F653
:2078A0008091E00081608093E0001CDC80E090E01F910895FA01923049F0933061F0913023
:2078C000F9F484E191E022E130E01EC086E291E02EE330E019C0882329F484E691E024E07A
:2078E00030E012C0813029F488E691E022E230E00BC0823029F48CE891E028E130E004C089
:2079000080E090E020E030E091838083C90108958093E9008091EB0081608093EB00109290
:20792000ED006093EC004093ED008091EE00881F8827881F08958091B70188238CF403C06B
:207940008EB38823B1F08091E80082FFF9CF8091E8008B778093E80008958EB3882349F0A0
:207960008091E80080FFF9CF8091E8008E778093E8000895EF92FF920F931F9345D04CD09A
:2079800008ED10E0F80180818F77808380818068808380818F7D808319BC1EBA1092B501FE
:2079A00080EEE82EF12CF70180818B7F8083F80180818160808380E060E042E0A9DFE1EE29
:2079C000F0E080818E7F8083E2EEF0E0808181608083808188608083F70180818E7F80834C
:2079E000F8018081806180831F910F91FF90EF900895E7EDF0E08081816080838AE482BF76
:207A000081E08093B601B6CFE8EDF0E080818E7F80831092E20008951092DA001092E100E0
:207A200008951F920F920FB60F9211242F933F934F935F936F937F938F939F93AF93BF9358
:207A4000EF93FF938091DA0080FF1BC08091D80080FF17C08091DA008E7F8093DA00809198
:207A6000D90080FF0BC080E189BD82E189BD09B400FEFDCF81E08EBB3BD203C019BC1EBAE5
:207A800037D28091E10080FF17C08091E20080FF13C08091E2008E7F8093E2008091E20068
:207AA00080618093E2008091D80080628093D80019BC85E08EBB1CD28091E10084FF2CC068
:207AC0008091E20084FF28C080E189BD82E189BD09B400FEFDCF8091D8008F7D8093D80091
:207AE0008091E1008F7E8093E1008091E2008F7E8093E2008091E20081608093E2008091C4
:207B0000B501882331F48091E30087FD02C081E001C084E08EBBECD18091E10083FF21C0C4
:207B20008091E20083FF1DC08091E100877F8093E10082E08EBB1092B5018091E1008E7F05
:207B40008093E1008091E2008E7F8093E2008091E20080618093E20080E060E042E0D8DEFB
:207B6000C7D1FF91EF91BF91AF919F918F917F916F915F914F913F912F910F900FBE0F9002
:207B80001F9018959C014091BD015091BE014617570718F4F90190E044C06115710511F09B
:207BA000AB01F8CF8091E8008E778093E80040E050E0F0CF8EB3882309F444C0853009F4AB
:207BC00043C08091E80083FF02C081E008958091E80082FD31C08091E80080FF22C0809193
:207BE000F3009091F200782F60E0292F30E0262B372B07C081918093F100415050402F5FF1
:207C00003F4F4115510519F02830310598F390E02830310509F491E08091E8008E7780938B
:207C2000E8004115510531F6992321F605C08EB3882341F0853041F08091E80082FFF7CFAE
:207C400080E0089582E0089583E008959C016115710529F48091E8008B778093E800F90192
:207C600026C08EB3882391F1853091F18091E80083FF02C081E008958091E80082FFF1CF04
:207C800006C08091F10081936150704059F02091F3008091F200322F20E090E0822B932B7B
:207CA000892B79F78091E8008B778093E80061157105B9F605C08EB3882341F0853041F047
:207CC0008091E80080FFF7CF80E0089582E0089583E008950F931F93DF93CF9300D0CDB7EE
:207CE000DEB7E7EBF1E08091F100819381E0EF3BF807C9F708DD8091E80083FFE4C08091D7
:207D0000B7019091B801953009F46DC0963040F4913081F1913070F0933009F0D4C02AC05A
:207D2000983009F4A3C0993009F4B2C0963009F0CAC07CC0803809F4C6C0823809F0C3C0ED
:207D40008091BB0187708093E9008091EB001092E9002091E800277F2093E80090E025E08D
:207D6000969587952A95E1F781708093F1001092F10087C0882319F0823009F0A4C08F7193
:207D8000823009F0A0C08091B901882331F52091BB01277009F497C02093E9008091EB004C
:207DA00080FF1BC0933021F48091EB00806213C08091EB0080618093EB0081E090E002C072
:207DC000880F991F2A95E2F78093EA001092EA008091EB0088608093EB001092E9008091B5
:207DE000E800877F51C0882309F06DC01091B9011F770FB7F8948091E800877F8093E80076
:207E00009ADD8091E80080FFFCCF8091E3008078812B8093E30080688093E300112311F403
:207E200082E001C083E08EBB0FBF4DC08058823008F049C08091B9019091BA016091BB01B9
:207E4000AE014F5F5F4F36DDBC01009709F43BC08091E800877F8093E80089819A8192DE29
:207E60008091E8008B778093E8002DC0803859F58091E800877F8093E8008091B501809345
:207E8000F1008091E8008E778093E80054DD1BC08823C9F49091B9019230A8F48091E80052
:207EA000877F8093E8009093B50145DD8091B501882331F48091E30087FD02C081E001C0D3
:207EC00084E08EBB50DC8091E80083FF0AC08091EB0080628093EB008091E800877F809396
:207EE000E8000F900F90CF91DF911F910F91089508951F938EB3882361F01091E9001092E7
:207F0000E9008091E80083FF01C0E4DE17701093E9001F910895F999FECF92BD81BDF89A9C
:207F2000992780B50895262FF999FECF1FBA92BD81BD20BD0FB6F894FA9AF99A0FBE0196DC
:207F40000895F894FFCF4341544552494E4100770008000000000000080112011001020035
:207F600000084123410001000201000109023E000201008032090400000102020100052415
:207F8000001001042402040524060001070582030800FF09040100020A00000007050402AE
:207FA00010000107058302100001040309042203410072006400750069006E006F002000E3
:207FC000590075006E002000200020002000200000001803410072006400750069006E0047
:0C7FE0006F0020004C004C00430000002B
:00000001FF
